:020000040000fa
:080000000402040000000000ee
:020000040000fa
:04000800b80100003b
:020000040000fa
:04000c00b801000037
:020000040000fa
:04001000b801000033
:020000040000fa
:04001400b80100002f
:020000040000fa
:04001800b80100002b
:020000040000fa
:04001c00b801000027
:020000040000fa
:04002000b801000023
:020000040000fa
:04002400b80100001f
:020000040000fa
:04002800b80100001b
:020000040000fa
:04002c00b801000017
:020000040000fa
:04003000b801000013
:020000040000fa
:0400340010100000a8
:020000040000fa
:04003800b80100000b
:020000040000fa
:04003c00b801000007
:020000040000fa
:04004000b801000003
:020000040000fa
:04004400b8010000ff
:020000040000fa
:040048001410000090
:020000040000fa
:04004c00b8010000f7
:020000040000fa
:04005000b8010000f3
:020000040000fa
:040054002010000078
:020000040000fa
:04005800b8010000eb
:020000040000fa
:04005c00b8010000e7
:020000040000fa
:04006000b8010000e3
:020000040000fa
:04006400b8010000df
:020000040000fa
:04006800b8010000db
:020000040000fa
:04006c00b8010000d7
:020000040000fa
:04007000b8010000d3
:020000040000fa
:04007400b8010000cf
:020000040000fa
:04007800b8010000cb
:020000040000fa
:04007c00b8010000c7
:020000040000fa
:04008000b8010000c3
:020000040000fa
:04008400b8010000bf
:020000040000fa
:04008800b8010000bb
:020000040000fa
:04008c00b8010000b7
:020000040000fa
:04009000b8010000b3
:020000040000fa
:04009400b8010000af
:020000040000fa
:04009800b8010000ab
:020000040000fa
:04009c00b8010000a7
:020000040000fa
:0400a0002810000024
:020000040000fa
:0400a400b80100009f
:020000040000fa
:0400a800b80100009b
:020000040000fa
:0400ac00b801000097
:020000040000fa
:0400b000b801000093
:020000040000fa
:0400b400b80100008f
:020000040000fa
:0400b800b80100008b
:020000040000fa
:0400bc00b801000087
:020000040000fa
:0400c000b801000083
:020000040000fa
:0400c400b80100007f
:020000040000fa
:0400c800b80100007b
:020000040000fa
:0400cc00b801000077
:020000040000fa
:0400d000b801000073
:020000040000fa
:0400d400b80100006f
:020000040000fa
:0400d800b80100006b
:020000040000fa
:0400dc00b801000067
:020000040000fa
:0400e000b801000063
:020000040000fa
:0400e400b80100005f
:020000040000fa
:0400e800b80100005b
:020000040000fa
:0400ec00b801000057
:020000040000fa
:0400f000b801000053
:020000040000fa
:0400f400b80100004f
:020000040000fa
:0400f800b80100004b
:020000040000fa
:0400fc00b801000047
:020000040000fa
:04010000b801000042
:020000040000fa
:04010400b80100003e
:020000040000fa
:04010800b80100003a
:020000040000fa
:04010c00b801000036
:020000040000fa
:04011000b801000032
:020000040000fa
:04011400b80100002e
:020000040000fa
:04011800b80100002a
:020000040000fa
:04011c00b801000026
:020000040000fa
:04012000b801000022
:020000040000fa
:04012400b80100001e
:020000040000fa
:04012800b80100001a
:020000040000fa
:04012c00241000009b
:020000040000fa
:040130002c1000008f
:020000040000fa
:04013400b80100000e
:020000040000fa
:04013800b80100000a
:020000040000fa
:04013c00b801000006
:020000040000fa
:04014000b801000002
:020000040000fa
:04014400b8010000fe
:020000040000fa
:04014800b8010000fa
:020000040000fa
:04014c00b8010000f6
:020000040000fa
:04015000b8010000f2
:020000040000fa
:04015400b8010000ee
:020000040000fa
:04015800b8010000ea
:020000040000fa
:04015c00b8010000e6
:020000040000fa
:04016000b8010000e2
:020000040000fa
:04016400b8010000de
:020000040000fa
:04016800b8010000da
:020000040000fa
:04016c00b8010000d6
:020000040000fa
:04017000b8010000d2
:020000040000fa
:04017400b8010000ce
:020000040000fa
:04017800b8010000ca
:020000040000fa
:04017c00b8010000c6
:020000040000fa
:04018000b8010000c2
:020000040000fa
:04018400b8010000be
:020000040000fa
:04018800b8010000ba
:020000040000fa
:04018c00b8010000b6
:020000040000fa
:04019000b8010000b2
:020000040000fa
:04019400b8010000ae
:020000040000fa
:04019800b8010000aa
:020000040000fa
:04019c00b8010000a6
:020000040000fa
:0401a000b8010000a2
:020000040000fa
:0401a400b80100009e
:020000040000fa
:0401a800b80100009a
:020000040000fa
:0401ac00b801000096
:020000040000fa
:0401b000b801000092
:020000040000fa
:0401b400b80100008e
:020000040000fa
:0401b800b80100008a
:020000040000fa
:0401bc00b801000086
:020000040000fa
:0401c000b801000082
:020000040000fa
:0401c400b80100007e
:020000040000fa
:0401c800b80100007a
:020000040000fa
:0401cc00b801000076
:020000040000fa
:0401d000b801000072
:020000040000fa
:0401d400b80100006e
:020000040000fa
:0401d800b80100006a
:020000040000fa
:0401dc00b801000066
:020000040000fa
:0401e000b801000062
:020000040000fa
:0401e400b80100005e
:020000040000fa
:0401e800b80100005a
:020000040000fa
:0401ec00b801000056
:020000040000fa
:0401f000b801000052
:020000040000fa
:0401f400b80100004e
:020000040000fa
:0401f800b80100004a
:020000040000fa
:0401fc00b801000046
:020000040000fa
:100200008a1f78008b1f780000000600a10288007a
:10021000800478000000eb001f003700e2844400f7
:1002200054a0b4009905ba00e284440054a0b4007c
:100230009906ba00e284440054a0b4000006eb0022
:10024000476fde00fd07b200ae018800636ce1007d
:1002500003003a00eaff07000000eb000e00370041
:10026000606ce10008003a00004deb000a05e80070
:10027000020039003420ec000af0a0008b05e900f0
:10028000f9ff3e00040037006168e1000100320020
:100290000086eb000b00070019c7ba001905ba0069
:1002a0000e04e00003003a000a00e000dbff3a0021
:1002b00000000600fe07b200ae0288008a04780043
:1002c000f5ff37000cd0a300e20f4d001c003900f1
:1002d00089027800354dba000a05e80002003900ad
:1002e0003420ec000af0a0008b05e9000f0032007a
:1002f000254dba000a05e800020039003420ec0060
:100300000af0a0008b05e900080032000c00e000b4
:100310000600320015cdba000a05e80002003900d7
:100320003420ec000af0a0008b05e9008984e80085
:1003300054a0b4000b00e000e2ff3a000000060009
:100340009902ba00055d78008b05e900f7ff3200dd
:10035000c82ade00055d78008b05e900f3ff320056
:100360000c00e000f1ff320019ddba00eeff3700ab
:0c0370000040da000000fe000000050064
:020000040000fa
:10037c00ffff0000ffff0000ffff0000ffff000079
:10038c00ffff0000ffff0000ffff0000ffff000069
:10039c00ffff0000ffff0000ffff0000ffff000059
:1003ac00ffff0000ffff0000ffff0000ffff000049
:1003bc00ffff0000ffff0000ffff0000ffff000039
:1003cc00ffff0000ffff0000ffff0000ffff000029
:1003dc00ffff0000ffff0000ffff0000ffff000019
:1003ec00ffff0000ffff0000ffff0000ffff000009
:1003fc00ffff0000424f00004f5400000f7024001c
:10040c00e07f2400000188003c0202000000000094
:10041c0000802000ff030900300169008201780090
:10042c00ff1b0900b081690001802000ff1f09003b
:10043c008018eb00224e88006f006100ffe8b700c7
:10044c00334e880020002000f9e8b700c0272900af
:10045c00b04d8800f0002000fee8b7006446af0005
:10046c00fc063700000037000e0037009101370002
:10047c00c4013700e3013700e7013700f60137000c
:10048c00250237004e0237006b023700620237003c
:10049c009802370024003700dd00370012013700c6
:1004ac003701370083e0a9007ee9ef0082e9ef0015
:1004bc0084e9ef00710020003e0202000000000001
:1004cc006466ae00e30637006486ae00e1063700d2
:1004dc003e020200000000006466ae00dd0637003c
:1004ec006486ae00db0637003e020200000000000e
:1004fc006466ae00e9ff37006486ae00e8ff3700a3
:10050c00620020003e020200000000006466ae00a3
:10051c00d00637006486ae00ce0637000201e90033
:10052c00f8ff3a00dbff370050002000b04b88008a
:10053c00dc69a8009021ef0095e1a8009860a80064
:10054c0083e0a80040922400404e880020492200fd
:10055c00504e880090242900604e880020492200cb
:10056c00704e880040922400804e88002049220062
:10057c00904e880040922400a04e880090242900c0
:10058c00b04e880090242900704d880090402000c7
:10059c00004088003040880060408800904088000f
:1005ac00c0408800f0408800209020001040880057
:1005bc004040880070408800a0408800d0408800ef
:1005cc004020200020408800504088008040880057
:1005dc00b0408800e0408800e04b8000f03fb20063
:1005ec00fdff3a00c829d500c809af00c9e9a80029
:1005fc00ca29d500ca09af00cbe9a800cc29d5007f
:10060c00cc09af00cde9a800ce29d500ce09af00aa
:10061c00cfe9a800d029d500d009af00d1e9a800b6
:10062c00d229d500d209af00d3e9a800d429d5002e
:10063c00d409af00d5e9a800d629d500d609af005a
:10064c00d7e9a800ae29d500aec9af00afe9a80024
:10065c00ae49a900af89af00ae49a800d40502008d
:10066c0000000000dc29ae00dbff3700c8a9ef005a
:10067c00caa9ef00cca9ef00cea9ef00d0a9ef00da
:10068c00d2a9ef00d4a9ef0000002f00b04e8800d3
:10069c00b0072000704d8800b04e8000f1ff2000a4
:1006ac0001006000c12420000100e1001a003a00a2
:1006bc00af89af0018003700afa9ae0016003700a5
:1006cc00afc9af0014003700ae49af0012003700bd
:1006dc00af69af0010003700afe9af000e00370074
:1006ec00c829ef00ca29ef00cc29ef00ce29ef0072
:1006fc00d029ef00d229ef00d429ef00d629ef0042
:10070c0000802000770009000018eb000000260094
:10071c00704d880060ff3700dc29ae00feff37000b
:10072c00dc29a900d405020000000000304d800037
:10073c000000d0000060010000f020002200370013
:10074c000000210020003700000022001e003700ae
:10075c00000024001c003700400020001a00370065
:10076c00008020001a0037000040200018003700dd
:10077c000020200016003700001020001400370065
:10078c000008200012003700000420001000370081
:10079c00000220000e003700000120000c00370082
:1007ac00800020000a0037004000200008003700bd
:1007bc002000200006003700100020000400370045
:1007cc000008280000003700aea9b6000100370071
:1007dc00d6a9b600b04e8000f1ff200001006000e9
:1007ec000100e100acff3a00704d800041f82f0091
:1007fc00010060000100e100a7ff3a0000832f0018
:10080c00e04b88007c09e200feff3a000000fe008d
:10081c0083e0a9007ee9ef0082e9ef0084e9ef00b4
:10082c008e66ef007b66ef008f06a900f0872f0025
:10083c006626b600006820006626b7008f06a80062
:10084c00401f090000000000f0872f006626b6004c
:10085c00007020006626b700401f09000000000051
:10086c008f06a900f0872f006626b60000402000f6
:10087c006626b700803e090000000000803e09009b
:10088c00000000007e69d4006466af007e09a800f9
:10089c004220af000000fe00f0872f006626b60055
:1008ac00004820006626b700803e090000000000ca
:1008bc00803e0900000000008269d4006466af002d
:1008cc008209a8008469d4006486af008409a8005a
:1008dc00f3fe3200803e090000000000803e09005b
:1008ec0000000000ceff3700df29af000e003700fc
:1008fc00f0872f006626b600006820006626b70039
:10090c00410120008f06a8003f1f090000000000d5
:10091c008f06a90000052000400202000000000024
:10092c008100e900f7ff3a00dec9a800dee9a90062
:10093c00df29a9000005eb000a007800460202003e
:10094c000000000078004500dee9a8004602020025
:10095c00000000000a0078004402020000000000c1
:10096c0078004500dee9a900440202000000000006
:10097c000a05e8007850e100efff3900c6fe3700a9
:10098c00dec9a800dee9a800df29a80000002000cd
:10099c00202688006021200060268800005024005a
:1009ac0070268800000022004026880000002400e9
:1009bc0050268800e03920008026880000002200a4
:1009cc009026880000002100a0268800c5e4a8001d
:1009dc00cc04a8009960a900ee05020000000000fc
:1009ec00f0872f006626b600007020006626b70040
:1009fc000004eb009e2680000d352c000000220028
:100a0c00ff0709000098eb000b0020007c01200080
:100a1c0000000000902680000e00e1000300320070
:100a2c00df49a800000778000d352c00df49ae0027
:100a3c00020037008d06e900180032008904e80036
:100a4c004220af000804e800000f200009006000fd
:100a5c0009003a00df49af00030037000830a60058
:100a6c0003003700050037000800a600020037001d
:100a7c008f06a800010037008f06a900cea4ae0097
:100a8c00e3ff3700cea4a9000c06e90003003200f6
:100a9c004e02020000000000ddff3700cea4a900ca
:100aac00c5e4a900cc04a9004e020200000000001d
:100abc0079fe370083e0a9000010200010088800a0
:100acc009001200091e7b700a0012000b4e7b70027
:100adc0030002000efe7b70000012200a00c8800d6
:100aec00901d2000900c880000002200000d880052
:100afc0090002000e00c880000002200100d8800ff
:100b0c0090002000f00c880080802200c01c88001f
:100b1c0000002000d01c8800001a2000001d880056
:100b2c0099e3a8009b83a8009b43a80010a1a900ef
:100b3c0081e0a8006a26ef007e26ef009226ef00e7
:100b4c00c00120009033880000202000d0348800a1
:100b5c006000200030338800000f2000d033880064
:100b6c000000200070348800d00120001033880071
:100b7c00000f2000b0338800002020005034880083
:100b8c0000000600f0872f006626b6004708dd003f
:100b9c006626b7008100e80000000600f0f0200097
:100bac0001802000020120009108d1001100a70053
:100bbc001130a0001180a70011b0a00091186000a6
:100bcc00000000000201e900f7ff3a0000000600f7
:100bdc0099e3a90076e6a90060002000b4e7b7000d
:100bec0030002000dbe7b700de69a80099e3a8001d
:100bfc00f868ef0000602400e04d8800f04d88009c
:100c0c00000006007f3e0900000000000000e90023
:100c1c0018fe3a0000000600dec9af0007003700de
:100c2c00010021000103b80000002a00110020007f
:100c3c000003430081834b0000000600018020006c
:100c4c000103b80000002100010020000003430054
:100c5c0081834b00000006004202020000000000ed
:100c6c0083e0a9008e66ef007b66ef008f06a9007b
:100c7c00f0872f006626b60000682000df29af0041
:100c8c00007020006626b700869fbe004c02020052
:100c9c0000000000dec9ae004c02020000000000a3
:100cac004f03be0002002200dee9af000200230069
:100cbc0008012000dec9af00880020004a020200b3
:100ccc0000000000dec9ae00df49af008f06a800af
:100cdc00b029ec00804d8000f000b20002003a0018
:100cec003f1f0900000000008f06a90050002000e3
:100cfc0040020200000000000844e900efff3a0047
:100d0c005420ef00dec9ae0083e0a80000002100f3
:100d1c00003b8800000006004202020000000000b8
:100d2c00a702880002002200dee9af0002002300c7
:100d3c00dec9af00130037000380200096c0ba0054
:100d4c003640ba000080fd0001407800004fb3002f
:100d5c000080fd00001978003640ba000080fd00cc
:100d6c0001c0fd0001407800004fb3000080fd0081
:100d7c00001978008301e900f0ff3a005420ef00dd
:100d8c00000006000340200096c0ba0000000000de
:100d9c003659ba00000000003659ba0000000000b5
:100dac0001597800000000000059eb000000000021
:100dbc008301e900f4ff3a005420ef000000060024
:100dcc00dec9a9004202020000000000a702880050
:100ddc008300200002002000041020008080eb0023
:100dec0016c0ba0080c060003600ba008080600077
:100dfc000402e900faff3a000201d0008100e80089
:100e0c004220ae000200a0008301e900f2ff3a008c
:100e1c005420ef000000060030002500003b880045
:100e2c00163b8800273b880000802000000343000d
:100e3c00e0834b001700370020002500003b8800a2
:100e4c00163b8800273b88000610b000e0834b005f
:100e5c00a00f2000a00288008000eb0003082000f7
:100e6c00dec9af0018003700b258bb003282fb005d
:100e7c00f400b200b250bb00b282fb00c42add0009
:100e8c000502720084c8bb008180e8008301e90080
:100e9c00f5ff3a000500fc0050c5b300303b88005c
:100eac00a0cab300303b880061e7a8000000000036
:100ebc00000000000000000061e7af00feff3700fb
:100ecc005420ef0000000600b258bb0000000000e8
:100edc00b250bb0000000000b2c8bb000000000014
:100eec008180e8000201e8008301e900f6ff3a0086
:100efc00e8ff37000000220001002300ff07090073
:100f0c00b018780000002200ff0709000098eb00e1
:100f1c000b00780044020200000000008b05e80082
:100f2c0000000600ffff0000ffff0000ffff0000b5
:100f3c00ffff0000ffff0000ffff0000ffff0000ad
:100f4c00ffff0000ffff0000ffff0000ffff00009d
:100f5c00ffff0000ffff0000ffff0000ffff00008d
:100f6c00ffff0000ffff0000ffff0000ffff00007d
:101ffc00ffff0000474500004e53000002000000a8
:10200c000500000018000000080000000d00000092
:10201c00200000008c29040000000000ce310400d8
:10202c0000000000323204000000000026320400e0
:10203c0000000000d6310400000000001a32040039
:10204c000000000022320400000000002a320400cc
:10205c0000000000b880200009002200294a8800f6
:10206c00a94a88000a8020008005eb000006eb00de
:10207c008006eb000007eb00194888000060240084
:10208c00e04d8800f04d880080882000704d88005d
:10209c0030002000f5e8b700c62702000000000061
:1020ac00fe27020000000000b61002000000000035
:1020bc000100200002802000849d2000a01002005e
:1020cc000000000001002100028f22000201d1005b
:1020dc00a49d2000a010020000000000de89a800d2
:1020ec0046170200000000009021ef009621ef003f
:1020fc009a21ef0095e1a800a1e1a800a3e1a800b6
:10210c009860a8009900a8009960a800a020a800d9
:10211c0083e0a8002e003700981002000000000099
:10212c000080fd009b23af00feff37009ce3b7004f
:10213c00000006008001eb0011c0ba000080fb001b
:10214c00830140003100ba00830140000201e90024
:10215c00f9ff3a000380fd00030a78000000060036
:10216c000180200043002100ce100200000000007e
:10217c00ce10020000000000ce1002000000000093
:10218c00ce10020000000000ce1002000000000083
:10219c003301ba006f006100804878004410de0003
:1021ac00805098008100e8000000060000802000ac
:1021bc00770009000018eb00000006007f3e0900c4
:1021cc00000000000000e900fcff3a0000000600df
:1021dc0000082800ae29b60080802000ae29b70088
:1021ec009049800010498800a0498000204988004f
:1021fc00b049800030498800c049800040498800bf
:10220c00ee498000dd498000810020002289bf005a
:10221c00040032006900e1004200af00114988005f
:10222c000900370021002000204980006200e100f5
:10223c00050032006300e100030032006d00e10094
:10224c004220ae0021498800f04980008049880076
:10225c00004a800070498800104a8000604988005c
:10226c00af89a9002c49af00af89a8007629ef00ef
:10227c00e029ef005420ef00294b8800f068ef00b4
:10228c002a29ef008004eb00dc49a8001000200094
:10229c00f148e2004220af00f1e8b700000e200048
:1022ac00604d88009960a800806720001080fb00ba
:1022bc004400de000be8b700104980002b49800079
:1022cc003c4980000000e0001200320047922000e0
:1022dc000060010027003700af023700b30237005f
:1022ec00b7023700bb023700bf023700c30237000a
:1022fc00c7023700cb023700180037001700370031
:10230c001600370015003700140037001300370093
:10231c0012003700079b20000b60010012003700f1
:10232c0011003700c4023700c90237000e00370015
:10233c000d0037000c0037000b0037000a00370087
:10234c000900370008003700070037000600370087
:10235c00c50237000400370003003700e009a8006d
:10236c00e029a90003003700e009a900e029a80032
:10237c0000003700dcc9af00df09a800806720002f
:10238c001080fb004400de000be8b700dc29ae0037
:10239c00f8ff3700dc29a900df09af00080037007f
:1023ac00df09a8000028ef000228ef000428ef0046
:1023bc001028ef001228ef001428ef00edff370073
:1023cc00e0a9a900e0e9a900304d80006500e1001a
:1023dc004200af005000200000600100b202370044
:1023ec0004003700050037006a003700f30037009f
:1023fc0005013700af89aa00aaff3700dec9a90082
:10240c00dee9a900df29a900afa9a800dcc9ae004c
:10241c0005003700004e80006f00e1003e003900df
:10242c00afa9a9009fff370014280200000000008c
:10243c00c62702000000000005002100e3ff230076
:10244c002300e0000a003a008502e900fcff3a0094
:10245c00afa9a800e0a9a800dc29ae00feff370058
:10246c00dc29a900afa9a900e0a9a9004000370008
:10247c0000f02f00921002000000000000f02f006e
:10248c009210020000000000503a2c009210020042
:10249c0000000000afa9a800050278004229de0068
:1024ac004220af00120020000500780092100200bc
:1024bc0000000000030022003300780000024200fc
:1024cc009210020000000000432bdd0011000900f7
:1024dc000283d8007f00e1004200af00f001200031
:1024ec000000d100f1ff2f008008dd00c14d8800f5
:1024fc008502e900f0ff3a00040078009210020017
:10250c0000000000c0082000e410020000000000e1
:10251c00afa9a90016003700050021000300220016
:10252c003300e0000a003a008502e900fcff3a00a3
:10253c00afa9a800e0a9a800dc29ae00feff370077
:10254c00dc29a900afa9a900e0a9a900080037005f
:10255c00fe13020000000000004e80004402020046
:10256c0000000000fe13020000000000afa9a9004b
:10257c00fe27020000000000ca2702000000000035
:10258c00b829ef00dc29a900461702000000000062
:10259c0044ff3700dec9a900dee9a900df29a80045
:1025ac00afc9a800dcc9af00560039009960a9007a
:1025bc001428020000000000c627020000000000e2
:1025cc00b213020000000000490031000501200098
:1025dc00b6130200000000005b003100500ab1008d
:1025ec00040032008502e900f9ff3a0000002000e7
:1025fc0055003700ba1302000000000052003100f1
:10260c00300cb100eeff3a00ba13020000000000db
:10261c004d0031008081fb00ba1302000000000065
:10262c00490031004800dd0083017000830278000e
:10263c004219de004220af0012002000440032009c
:10264c00110021000118e1004100310006002200b8
:10265c00ba130200000000003b0031000082fb00b6
:10266c00ba13020000000000370031004800dd0002
:10267c0004007000001b780085024000c318dd00c8
:10268c00110009008280d8007f00e1004200af00f9
:10269c00f00120000000d100f1ff2f008008de00c7
:1026ac00c14d88008301e900e9ff3a00ba1302002a
:1026bc0000000000240031000082fb00ba1302006d
:1026cc0000000000200031000080fd0004007000bc
:1026dc000500e1001c003a0006e0a70002003700ec
:1026ec00005beb00fcff3700afc9a900a0ff37006f
:1026fc000000e00016003200afc9a900e0e9a90013
:10270c009bff3700afc9a800fe13020000000000b9
:10271c00f0002000c049e3004220ae004402020059
:10272c0000000000fe13020000000000004e8000bc
:10273c004602020000000000fe1302000000000030
:10274c00afc9a9008aff37000000e0004220ae00ac
:10275c00e0e9a80086ff370001e2240003003700ff
:10276c0001fa200001003700411f2000008c2000de
:10277c00dc29af000d0037009a03af0007003700cb
:10278c000000e900faff3a008100e900f7ff3a0087
:10279c00000020004200a800000006009ec3bf00fd
:1027ac000080fb004200a90000000600dc29a90003
:1027bc00100020004200a80000000600300020009d
:1027cc00e009b600b7fe3a00ae49a800b614020004
:1027dc00000000008609ec00feff3a00ae49a9009b
:1027ec009a150200000000008d4b7800adfe3700fa
:1027fc0002002200010021001299ea008100e90088
:10280c00fdff3a000000060010140200000000005a
:10281c00a4fe3700239220004492200065922000f1
:10282c00dcc9ae001b003700e38f2000548f200062
:10283c001434a100059c200050140200000000007c
:10284c00f568a900f5c8bf007000b200ce270200e1
:10285c000000000000000600039b2000049b2000e9
:10286c00059b200003003700239220004492200097
:10287c0065922000b04b80006304e100050032003b
:10288c00dcc9ae0003003700238f2000148f20001a
:10289c00058f2000304d80005000b1006400e10035
:1028ac000d003900840178004000b1006400e100a3
:1028bc0009003900850178004000b1006400e10096
:1028cc0005003900afe9aa00aee9a900afe9ae00f6
:1028dc00aee9a80000000600afe9ae000d0037001d
:1028ec000000e0004220af001334a2006100e100c0
:1028fc004220af001324a2006200e1004220af008e
:10290c001314a2006300e1004220af001304a200e4
:10291c00000006001382fb000000e0004220af0024
:10292c004400b1006100e1004220af000402e90064
:10293c006200e1004220af000402e8006300e10005
:10294c004220af004400b00004f0a7000002eb00ee
:10295c000440a700f4002000844978000000060021
:10296c00ae69a900ae09a8000660010000000600cf
:10297c000e0037000f00370012003700160037002a
:10298c00190037001d003700230037002a003700dc
:10299c002d00370031003700370037003e0037007c
:1029ac00440037004b003700540037004d49880075
:1029bc00000006002c29a9002c09af002c29a80026
:1029cc00000006002c29a9002c09af002c29a80016
:1029dc004d498800000006002e29a9002e09af00e1
:1029ec002e29a800000006002e29a9002e09af00f0
:1029fc002e29a8004d498800000006002e29a900a8
:102a0c002e09af002e29a8002c29a9002c09af00f3
:102a1c002c29a800000006002e29a9002e09af00c1
:102a2c002e29a8002c29a9002c09af002c29a800bc
:102a3c004d498800000006003029a9003009af007c
:102a4c003029a800000006003029a9003009af0089
:102a5c003029a8004d498800000006003029a90043
:102a6c003009af003029a8002c29a9002c09af008f
:102a7c002c29a800000006003029a9003009af005d
:102a8c003029a8002c29a9002c09af002c29a8005a
:102a9c004d498800000006003029a9003009af001c
:102aac003029a8002e29a9002e09af002e29a80034
:102abc00000006003029a9003009af003029a80019
:102acc002e29a9002e09af002e29a8004d498800f7
:102adc00000006003029a9003009af003029a800f9
:102aec002e29a9002e09af002e29a8002c29a900f7
:102afc002c09af002c29a800000006003029a900e1
:102b0c003009af003029a8002e29a9002e09af00ea
:102b1c002e29a8002c29a9002c09af002c29a800cb
:102b2c004d49880000000600ae09a900ae69a80056
:102b3c0006600100000006000e0037000f00370091
:102b4c00150037001c0037001f003700230037002a
:102b5c002c003700360037003c00370043003700ac
:102b6c0049003700560037005f0037006900370016
:102b7c00780037004e498000000006002c49a9005f
:102b8c002c29af002c49a800af89a9002c49af0013
:102b9c00af89a800000006002c49a9002c29af0021
:102bac002c49a800af89a9002c49af00af89a80017
:102bbc004e498000000006002e49a9002e29af00c6
:102bcc002e49a800000006002e49a9002e29af00ae
:102bdc002e49a8004e498000000006002e49a9008d
:102bec002e29af002e49a8002c49a9002c29af0092
:102bfc002c49a800af89a9002c49af00af89a800c7
:102c0c00000006002e49a9002e29af002e49a8006d
:102c1c002c49a9002c29af002c49a800af89a90088
:102c2c002c49af00af89a8004e4980000000060077
:102c3c003049a9003029af003049a800f428a90078
:102c4c003029af00f428a800000006003049a90084
:102c5c003029af003049a800f428a9003029af0072
:102c6c00f428a8004e498000000006002c49a90059
:102c7c002c29af002c49a800af89a9002c49af0022
:102c8c00af89a800000006003049a9003029af0028
:102c9c003049a800f428a9003029af00f428a80076
:102cac002c49a9002c29af002c49a800af89a900f8
:102cbc002c49af00af89a8004e49800000000600e7
:102ccc003049a9003029af003049a800f428a900e8
:102cdc003029af00f428a8002e49a9002e29af00f6
:102cec002e49a800000006003049a9003029af0089
:102cfc003049a800f428a9003029af00f428a80016
:102d0c002e49a9002e29af002e49a8004e4980005b
:102d1c00000006003049a9003029af003049a80056
:102d2c00f428a9003029af00f428a8002e49a900e6
:102d3c002e29af002e49a8002c49a9002c29af0040
:102d4c002c49a800af89a9002c49af00af89a80075
:102d5c00000006003049a9003029af003049a80016
:102d6c00f428a9003029af00f428a8002e49a900a6
:102d7c002e29af002e49a8002c49a9002c29af0000
:102d8c002c49a800af89a9002c49af00af89a80035
:102d9c004e49800000000600e009a900e029a900c6
:102dac001a1e02000000000072fd3700e009a900a5
:102dbc00e029a900821e0200000000006dfd370012
:102dcc00e009a900e029a900e01e020000000000b3
:102ddc0068fd3700e009a900e029a900361f0200b0
:102dec000000000063fd3700e009a900e029a900fc
:102dfc009a1f0200000000005efd3700e009a900e8
:102e0c00e029a900d61f02000000000059fd370080
:102e1c00e009a900e029a900082002000000000038
:102e2c0054fd3700e009a900e029a9003a2002006e
:102e3c00000000004ffd3700e009a900e029a900bf
:102e4c00679220004a2202000000000049fd370072
:102e5c00e009a900e029a90067922000ca2202001b
:102e6c000000000043fd3700e009a900e029a9009b
:102e7c006792200060250200000000003dfd370035
:102e8c006596200008002000080078004802020027
:102e9c0000000000825a78000804e8000840a600f0
:102eac00f9ff3700000006001049800090498800a7
:102ebc0020498000a049880030498000b049880032
:102ecc0040498000c0498800ee498800dd498800ef
:102edc0080498000f049880070498000004a8800d1
:102eec0060498000104a8800dcc9ae000100370040
:102efc0067083700df89ae00dc100200000000001c
:102f0c00df89a800304a8000f0e8b700404a800012
:102f1c0050498800294a80009e4a80008d4a8000d2
:102f2c00504a800080498800604a800070498800bf
:102f3c00704a800060498800af89a9002c49af0015
:102f4c00af89a80010002000b04b8800e029ef00ea
:102f5c005420ef00dc49a800df69a800294a800052
:102f6c000a802000b8802000f328af00b88f200022
:102f7c00c00f2000604d88008006eb000007eb00be
:102f8c00dea9a90000082800ae29b6008040200068
:102f9c00ae29b70099e3a90099e3a8009b43a800c8
:102fac009b83a800dd29a900dd49a900dca9a900a3
:102fbc00e069a9007229020000000000dea9ae0041
:102fcc0009003700e0c9a800dcc9af0002003700d7
:102fdc00dc29ae00fcff3700dc29a900e0c9a90000
:102fec002a29ef00dea9a9000ac8bf00f328af0008
:102ffc00fac8bf007ae6b700dc89a9002b4980002b
:10300c003c49800010498000f000b20032003200d0
:10301c006300b80000600100000000000000000028
:10302c00000000000c1e0200000000005c003700d5
:10303c00741e02000000000059003700d21e02006e
:10304c000000000056003700281f0200000000009e
:10305c00530037008c1f02000000000050003700a6
:10306c00c81f0200000000004d003700fa1f0200cc
:10307c00000000004a0037002c2002000000000075
:10308c0047003700662002000000000044003700b3
:10309c009a2002000000000041003700d0200200fe
:1030ac00000000003e003700082102000000000074
:1030bc003b0037003a2102000000000038003700c6
:1030cc006e21020000000000350037008e21020046
:1030dc0000000000320037006358b80000600100a7
:1030ec00aa210200000000002d003700f62102008a
:1030fc00000000002a0037004622020000000000f9
:10310c0027003700c6220200000000002400370010
:10311c00442302000000000021003700802302003d
:10312c00000000001e003700ca230200000000004f
:10313c001b003700042402000000000018003700b8
:10314c004a24020000000000150037008024020011
:10315c000000000012003700c22402000000000032
:10316c000f003700f2240200000000000c003700b2
:10317c00242502000000000009003700542502003d
:10318c000000000006003700962502000000000039
:10319c0003003700c22502000000000000003700c9
:1031ac00dc29ae00feff3700dc29a900304d800081
:1031bc007104e10006003a00804780006f04e100d2
:1031cc004220af00be27020000000000304d8000fe
:1031dc006500e1004200af005000200000600100db
:1031ec0047003700040037000c003700110037008f
:1031fc002b00370006003700dcc9ae004c0d370041
:10320c00af89aa00722902000000000076ff370087
:10321c003a1402000000000073ff3700dcc9af0055
:10322c000a0037008984e90009d0a600e9ff2300d1
:10323c005eff3700dcc9af000c0037008984e80062
:10324c0009e0a7000900220058ff37002a29ef00e7
:10325c00f068ef0009002200dc1002000000000002
:10326c0072290200000000005fff370046190200bf
:10327c000000000072290200000000005aff370015
:10328c0009002400010021004900e0004220ae00aa
:10329c00000006008100e900fbff3a000000060078
:1032ac00dcc9ae0009003700104980004400dd0085
:1032bc002409b7004400dd002609b7000000d00047
:1032cc00010022008104400038ff3700fa3302006d
:1032dc0000000000ae49a800b61402000000000077
:1032ec008609ec00feff3a00ae49a9009a150200cf
:1032fc0000000000321d0200000000002bff370010
:10330c00e029ef005420ef00f0c8bf0046e9b700f9
:10331c0050498000404a8800294a88009e4a88000b
:10332c008d4a880080498000504a8800704980008e
:10333c00604a880060498000704a8800dcc9ae0091
:10334c0001003700a2fb3700df89ae00dc10020061
:10335c0000000000df89a800a94a8000b04a800064
:10336c0050498800c04a8000f0e8b7001e4b80002e
:10337c000d4b8000d04a800080498800e04a8000d4
:10338c0070498800f04a800060498800af89a90024
:10339c002c49af00af89a80020002000b04b88005a
:1033ac00000020000e26020000000000000020009b
:1033bc0040260200000000000a802000b880200097
:1033cc00f328af00b88f200000072000604d880064
:1033dc00dd29a900dca9a9008006eb000007eb00a1
:1033ec0000082800ae29b60080202000ae29b700c6
:1033fc00dd29a900dd49a900de29a900ae49a900f3
:10340c00dc69a900dc29ae00fdff3700dc29a9002e
:10341c00304d80006500e1004200af0050002000fc
:10342c00006001000a073700f3ff3700f2ff370096
:10343c00f1ff37000800370000003700321402009b
:10344c00000000000c260200000000003e260200d6
:10345c0000000000e8ff370099e3a90099e3a800f9
:10346c009b43a8009b83a800e049a90000602400ae
:10347c00e04d8800f04d8800de29a80000002000f7
:10348c00604d8800ae49a800af89a900dea9a9004b
:10349c00090022007229020000000000dc1002006a
:1034ac00000000002a29ef00f068ef00f168ef003f
:1034bc00f268ef00f368ef00f868ef00f00020000e
:1034cc00fee8b70030002000f5e8b700fe27020048
:1034dc0000000000ca270200000000007229020050
:1034ec00000000000ac8bf00f328af00fac8bf00f4
:1034fc007ae6b700dea9af0018013700dc89a90015
:10350c00dc29af00d0003700df69a900dc49af002f
:10351c00df69a800190078006f0660003c4988003c
:10352c00c405de00ef8565002b4988004800de00ed
:10353c0010498800620032006600b800006001008b
:10354c00000000000000000000000000000000006f
:10355c0000000000000000000c1e02000000000033
:10356c00df69af00121d020000000000ddff370014
:10357c00741e020000000000df69af00121d020083
:10358c0000000000d7ff3700d21e02000000000030
:10359c00df69af00121d020000000000d1ff3700f0
:1035ac00281f020000000000df69af00121d02009e
:1035bc0000000000cbff37008c1f02000000000051
:1035cc00df69af00121d020000000000c5ff3700cc
:1035dc00c81f020000000000df69af00121d0200ce
:1035ec0000000000bfff3700fa1f020000000000bf
:1035fc00df69af00121d020000000000b9ff3700a8
:10360c002c20020000000000df69af00121d020038
:10361c0000000000b3ff370066200200000000002d
:10362c00df69af00121d020000000000adff370083
:10363c009a20020000000000df69af00121d02009a
:10364c0000000000a7ff3700d0200200000000009f
:10365c00df69af00121d020000000000a1ff37005f
:10366c000821020000000000df69af00121d0200fb
:10367c00000000009bff37003a2102000000000010
:10368c00df69af00121d02000000000095ff37003b
:10369c006e21020000000000df69af00121d020065
:1036ac00000000008fff37008e2102000000000098
:1036bc00df69af00121d02000000000089ff370017
:1036cc006658b80000600100aa210200000000004a
:1036dc00df69af00121d02000000000081ff3700ff
:1036ec00f621020000000000df69af00121d02008d
:1036fc00000000007bff37004622020000000000a3
:10370c00df69af00121d02000000000075ff3700da
:10371c00c622020000000000df69af00121d02008b
:10372c00000000006fff370044230200000000007f
:10373c00df69af00121d02000000000069ff3700b6
:10374c008023020000000000df69af00121d0200a0
:10375c000000000063ff3700ca23020000000000d5
:10376c00df69af00121d0200000000005dff370092
:10377c000424020000000000df69af00121d0200eb
:10378c000000000057ff37004a2402000000000030
:10379c00df69af00121d02000000000051ff37006e
:1037ac008024020000000000df69af00121d02003f
:1037bc00000000004bff3700c22402000000000094
:1037cc00df69af00121d02000000000045ff37004a
:1037dc00f224020000000000df69af00121d02009d
:1037ec00000000003fff370024250200000000000d
:1037fc00df69af00121d02000000000039ff370026
:10380c005425020000000000df69af00121d020009
:10381c000000000033ff3700962502000000000076
:10382c00df69af00121d0200000000002dff370001
:10383c00c225020000000000df69af00121d02006b
:10384c000000000027ff370000002000a04d88007a
:10385c00dc29a900304d80006500e1004200af007a
:10386c0050002000006001000b00370004003700fe
:10387c001800370041003700070037000c003700f4
:10388c00de09aa00e049aa000c2602000000000094
:10389c003e26020000000000a04d80000000e00069
:1038ac0019ff32000000e9005e00320065003700ad
:1038bc00851f780032140200000000000c26020064
:1038cc00000000003e26020000000000cf0278003d
:1038dc00f1ff3700de29a900ae69a800ae09a900e6
:1038ec00afa9a800e0a9a800ae09a900ae69a8007c
:1038fc00dc29ae00feff3700dc29a900304d80002a
:10390c006500e1004200af005000200000600100a3
:10391c00f0ff37000d0037000c00370017003700a0
:10392c000a00370000003700851f780032140200af
:10393c00000000000c260200000000003e260200e1
:10394c0000000000cf027800e2ff3700de29a8005b
:10395c00afa9a900e0a9a900cfff3700e0c9a800d2
:10396c00dcc9af0002003700dc29ae00fcff3700d9
:10397c00dc29a900e0c9a9002a29ef00dea9a900c9
:10398c00ae09a900ae69a800ae49a900ae69a800ad
:10399c00ae09a900afa9a900e0a9a9000007200061
:1039ac00604d8800af89a90009002200722902002d
:1039bc0000000000f368ef00f868ef00f000200052
:1039cc00fee8b70030002000f5e8b700fe27020043
:1039dc0000000000ca27020000000000e049a90016
:1039ec00de09ae0005003700de09a9000c26020036
:1039fc00000000003e260200000000000000200035
:103a0c000e260200000000000000200040260200ec
:103a1c000000000078fe370010002000dc29af0009
:103a2c008aff370088e0ae00fbff370088e0a90072
:103a3c00b61402000000000020002000dc29af00ba
:103a4c0082ff370088e0ae00fbff370088e0a9005a
:103a5c009a150200000000008984e80009e0a70024
:103a6c00090022006838e100140039008d4b780001
:103a7c00dc89ae000a003700dc89a900904d80007b
:103a8c00dce9af0070408800dce9a900c0802000b0
:103a9c00808053003c0032008100e9004e0032006f
:103aac00dd29af009426020000000000dd49af00c4
:103abc00342702000000000000000600076001002f
:103acc0007003700070037000f00370016003700db
:103adc00180037001d003700220037002300370084
:103aec00000006000580a7000520b1008584440075
:103afc000000220009e0a7008084540009d0a60031
:103b0c0080844400000006008d4a78000d00e0001f
:103b1c004220ae00000006008984e80009e0a700fe
:103b2c000900220000000600ae29aa00622404004d
:103b3c00000000002a09e2000f0032000c4d780052
:103b4c00850478002a29ed0000000600754d9800c8
:103b5c00684d9800b8802000f328af00b88f200083
:103b6c000000060085047800000006000000060036
:103b7c0060002000010037007000200050498800d0
:103b8c00dea9a80000000600504980006500e10095
:103b9c00f7ff31006300b8000001b0008a0040005c
:103bac0000002200808454008904d1006f806400de
:103bbc00805878004448de006f0060008058780020
:103bcc004848de006f006000805878002a29ec001d
:103bdc000cc8bf00010037000dc8bf008080fb007f
:103bec000fc8bf004400dd000e48b7000080fb008a
:103bfc004400dd0001407000800478008904d0008e
:103c0c00000022008084440000000600c0338000c5
:103c1c004400de00f000b200004c78008b0345003d
:103c2c009785fb006a467e004b4988000b0778009d
:103c3c00f0f82f00ae29b6004460dd00008075005e
:103c4c004200dd00024f2300020040001000ba00c9
:103c5c004400de00ef066000dc49af0014003700c2
:103c6c004d4988000d0778003029ef002e29ef0010
:103c7c002c29ef00af89a900720020000060a7007a
:103c8c00824988000050a700724988008d4b78004b
:103c9c008984e80009e0a700090022000040a60082
:103cac000000060062498800af89a80000000600e9
:103cbc00f60020003009a9002e09a9002c09a90042
:103ccc000060a7003009a8000050a7002e09a8002a
:103cdc000040a7002c09a80000000600c03380009b
:103cec004400de00f000b200004c78008b0345006d
:103cfc009785fb006a467e004b4988000b077800cd
:103d0c00ae89a900aec9a800e09a200010c0a3009b
:103d1c00530020001018ad004460dd0000807500d9
:103d2c004200dd00024f230002004000aea9af00ac
:103d3c000080e8001000ba004400de00ef066000ce
:103d4c00dc49af00daff37004d4988000d077800d9
:103d5c003029ef002e29ef002c29ef00af89a900a4
:103d6c00720020000060a700824988000050a70064
:103d7c00724988008d4b78008984e80009e0a7001f
:103d8c00090022000040a6000000060062498800dd
:103d9c00af89a80000000600c03380004400de009c
:103dac00f000b200004c78008b0345009785fb00b7
:103dbc006a467e004b4988000b0778006f066e0040
:103dcc00ae89a800aec9a900aea9a8004460dd0068
:103ddc00008075004200dd00224f230002004000ed
:103dec001000ba004400de00ef066000dc49af00b2
:103dfc00afff37004d4988000d0778003029ef00e0
:103e0c002e29ef002c29ef00af89a90072002000a9
:103e1c000060a700824988000050a7007249880002
:103e2c008d4b78008984e80009e0a7000900220086
:103e3c000040a6000000060062498800af89a80077
:103e4c0000000600c03380004400de00f000b20029
:103e5c00004c78008b0345009785fb006a467e007a
:103e6c004b4988000b0778006f066e00ae89a800de
:103e7c00aec9a800e09a200010c8a3004200aa0016
:103e8c00530020001098ad004200aa004460dd00f1
:103e9c00008075004200dd00024f2300020040004c
:103eac00aea9af000080e8001000ba004400de00ac
:103ebc00ef066000dc49af007dff37004d498800fc
:103ecc000d0778003029ef002e29ef002c29ef0088
:103edc00af89a900720020000060a7008249880009
:103eec000050a700724988008d4b78008984e80047
:103efc0009e0a700090022000040a600000006000f
:103f0c0062498800af89a80000000600c033800019
:103f1c004400de00f000b200004c78008b0345003a
:103f2c00eac57d006a467e004b4988000b07780085
:103f3c00f0f82f00ae29b6008c867500dc49af0076
:103f4c000b0037004d4988000d07780072002000e7
:103f5c002e29ef004220af00724988008d4b78006b
:103f6c008984e80009e0a70009002200000006008f
:103f7c00560020002e09a9004220af002e09a800ef
:103f8c0000000600c03380004400de00f000b200e8
:103f9c00004c78008b034500eac57d006a467e0024
:103fac004b4988000b077800f0f82f00ae29b600bb
:103fbc008c866500dc49af00edff37004d49880069
:103fcc000d077800720020002e29ef004220af0070
:103fdc00724988008d4b78008984e80009e0a700bd
:103fec000900220000000600c03380004400de00ff
:103ffc00f000b200004c78008b034500eac57d0050
:10400c006a467e004b4988000b077800f0f82f00b9
:10401c00ae29b6008c866d00dc49af00d4ff3700aa
:10402c004d4988000d077800720020002e29ef0002
:10403c004220af00724988008d4b78008984e800db
:10404c0009e0a7000900220000000600c033800030
:10405c004400de00f000b200004c78008b034500f9
:10406c009785fb006a467e004b4988000b07780059
:10407c00dc89a800f0f82f00ae29b6008c06780079
:10408c00dc49af000c0037004d4988000d07780063
:10409c008d4b78008984e80009e0a7000900220014
:1040ac00c080200080805300b7fe32008100e90000
:1040bc00c9fe3200000006001600200000000600b9
:1040cc00c03380004400de00f000b200004c7800e9
:1040dc008b034500eac57d004b4988000b0778002f
:1040ec00dc89a800f0f82f00ae29b6008c06780009
:1040fc00dc49af00f0ff37004d4988000d07780010
:10410c008d4b78008984e80009e0a70009002200a3
:10411c00c0802000808053009bfe32008100e900ab
:10412c00adfe320000000600eac57d006a467e0046
:10413c00c45bdd008c8343008a8343006f58e1002d
:10414c004220af00dd29a8008c0278008005eb002e
:10415c001787fb004e4988001a86fb00f0f82f00e9
:10416c00ae29b6008c067800dc49af00d2ff3700d0
:10417c004d4988000d0778008d4b78008984e80044
:10418c0009e0a70009002200dd29ae0000000600ae
:10419c00e2023700eac57d006a467e008a03780099
:1041ac001787fb004e498800c458dd008c80400006
:1041bc008a8040006f58e10002003a00dd49a800f7
:1041cc008c0278008005eb001186fb00f0f82f00c4
:1041dc00ae29b6008c067800dc49af00b6ff37007c
:1041ec004d4988000d0778008d4b78008984e800d4
:1041fc0009e0a70009002200dd49ae00000006001e
:10420c0016033700c45bdd008c8343008a834300b4
:10421c006f58e1004220af00dd29a8008c02780025
:10422c008005eb001787fb004e4988001a86fb00bf
:10423c00f0f82f00ae29b6008c067800dc49af00f0
:10424c009dff37004d4988000d0778008d4b780095
:10425c008984e80009e0a70009002200dd29ae00ee
:10426c0000000600ad0237008a0378001787fb00b8
:10427c004e498800c458dd008c8040008a80400084
:10428c006f58e10002003a00dd49a8008c0278006a
:10429c008005eb001186fb00f0f82f00ae29b6006c
:1042ac008c067800dc49af0083ff37004d4988004d
:1042bc000d0778008d4b78008984e80009e0a70091
:1042cc0009002200dd49ae0000000600e3023700c1
:1042dc00f0f82f00ae29b6008b0278000c047800a1
:1042ec008005eb000006eb00570020008e067800de
:1042fc00dc49af00040037008984e80009e0a7001e
:10430c000900220011fe3700060020000000060004
:10431c00f0f82f00ae29b600c45add008c824200a2
:10432c008502d0008005eb000006eb001700200092
:10433c00dc49af00f4ff37008984e80009e0a700ee
:10434c0009002200e7fd3700c03380004400de0086
:10435c00f000b200004c78009a85fb006f066e00ee
:10436c00ae89a800aec9a900aea9a8004460dd00c2
:10437c00008075004200dd00224f23000200400047
:10438c001000ba004400de00ef066000079b20001e
:10439c00e6002000dc49af0046fe37003029ef0074
:1043ac002e29ef002c29ef00af89a9007200200004
:1043bc000060a700824988000050a700724988005d
:1043cc008984e80009e0a700090022000040a6004b
:1043dc000000060062498800af89a80000000600b2
:1043ec00c03380004400de00f000b200004c7800c6
:1043fc009a85fb008a0378004b4988000b077800ec
:10440c00f0f82f00ae29b6004460dd000080750086
:10441c004200dd00024f2300020040001000ba00f1
:10442c004400de00ef066000dc49af0020fe3700e0
:10443c004d4988000d0778003029ef002e29ef0038
:10444c002c29ef00af89a900720020000060a700a2
:10445c00824988000050a700724988008d4b780073
:10446c008984e80009e0a700090022000040a600aa
:10447c000000060062498800af89a8000000060011
:10448c008c0345006a467e004c4988000c07780076
:10449c001b002000dc89a800f0f82f00ae29b60024
:1044ac000c00e800ef0660008a815300c300b100e5
:1044bc00e30fb2000f003a007609e2000d00320063
:1044cc000d00e0000b003a00dce9a8007040800011
:1044dc00904d8800b269ec00b289ae00050037003f
:1044ec00b289a900b249e2004220af00b369ec00e6
:1044fc00b389a900dc49af00190037008984e800b2
:10450c0009e0a700090022004d4988000d0778003a
:10451c008d4b7800004e8000dce9af0070408800c5
:10452c00dce9a9002e29ef002c29ef00af89a900a6
:10453c00720020000d00e00003003a007249880070
:10454c0062498800af89a800c08020008080530099
:10455c008dfd32008100e9009ffd32000000060055
:10456c00760020002e09a9002c09a9000d00e000fe
:10457c0002003a002e09a8002c09a8000000060031
:10458c008c0345006a467e004c4988000c07780075
:10459c00fb002000dc89a800f0f82f00ae29b60043
:1045ac000c00e900ef0660008a815300c300b100e3
:1045bc00e30fb2000e003a007609e2000c00320064
:1045cc000c00e0000a003a00dce9a8007040800012
:1045dc00904d8800b269ed00b2e9ae0004003700de
:1045ec00f0002000b269b600b369ed00b369b60003
:1045fc00dc49af00170037008984e80009e0a70008
:10460c00090022004d4988000d0778008d4b780079
:10461c00004e8000dce9af0070408800dce9a900a6
:10462c002e29ef002c29ef00af89a9007200200081
:10463c000d00e0004220af00724988006f68e10075
:10464c004220ae000000060062498800af89a80035
:10465c0000000600760020002e09a9002c09a900f4
:10466c000d00e0004220af002e09a8006f68e100a9
:10467c004220ae002c09a800000006008c03450067
:10468c001786fb004c4988000c077800fb002000c3
:10469c00f0f82f00ae29b6000c01e900ef0661001e
:1046ac00dc49af000d0037008984e80009e0a70061
:1046bc00090022008d4b78000d0778004d498800c9
:1046cc000d00e0004220ae00000006008984e800e6
:1046dc0009e0a70009002200000006004c498800f0
:1046ec000c077800870278002700200006002000c5
:1046fc0000000600c03380004400de00f000b20071
:10470c00004c78009a85fb008a0378004b4988009e
:10471c000b077800f0f82f00ae29b6000c8075005e
:10472c00ef0660004200a800dc49af000e00370025
:10473c004d4988000d077800720020002e29ef00eb
:10474c000d00e0004220af007249880062498800e9
:10475c00af89a8008d4b78008984e80009e0a70098
:10476c000900220000000600760020002e09a90096
:10477c004220af002e09a8002c09a9004200af006e
:10478c002c09a80000000600c03380004400de00a5
:10479c00f000b200004c78009a85fb008a03780088
:1047ac004b4988000b077800f0f82f00ae29b600b3
:1047bc000c806500ef0660004200a900dc49af00e8
:1047cc00e9ff37004d4988000d0778007200200082
:1047dc002e29ef000d00e0004220af007249880046
:1047ec002c29ef00af89a9008d4b78008984e80053
:1047fc0009e0a7000900220000000600c033800079
:10480c004400de00f000b200004c78009a85fb00fa
:10481c008a0378004b4988000b077800f0f82f00ca
:10482c00ae29b6004200a900af89ae004200a80034
:10483c000c806d00ef066000dc49af00caff37004a
:10484c004d4988000d077800720020002e29ef00da
:10485c00af89a9000d00e0004220af00724988002a
:10486c002c49af000001eb00624988000200a70050
:10487c00af89a8008d4b78008984e80009e0a70077
:10488c000900220000000600c03380004400de0056
:10489c00f000b200004c78008005eb00f0f82f001f
:1048ac00ae29b600dc49af000f0037008984e80060
:1048bc0009e0a700090022000c0178000200e000ca
:1048cc004220af000201200003802000048e200053
:1048dc001480fb00135a7800805978000201e9001b
:1048ec00fbff3a0000000600370020000600200005
:1048fc0000000600c03380004400de00f000b2006f
:10490c00004c78006c0066004200de006300e100a1
:10491c0003003a00b0002000f328af00b00f2000d5
:10492c00800345009785fb009786fb0063016600ba
:10493c00100020000206dd000b006600dc49af0011
:10494c0008003700720020002e29ef004220af0033
:10495c00724988008984e80009e0a7000900220058
:10496c0000000600460020002e09a9004220af00de
:10497c002e09a800000006006c0066004200de0054
:10498c006300e10003003a00a0002000f328af0010
:10499c00a00f2000800345009785fb004b49880041
:1049ac000b07780063016600100020000206dd0092
:1049bc00f0f82f00ae29b6008b067600dc49af006c
:1049cc0051fe37008d4b78008984e80009e0a70080
:1049dc0009002200000006006c0066004200de00a8
:1049ec006300e10003003a00a0002000f328af00b0
:1049fc00a00f2000800345009785fb004b498800e1
:104a0c000b07780063016600100020000206dd0031
:104a1c00f0f82f00ae29b6006f006e008b06600018
:104a2c00dc49af0038fe37008d4b78008984e800f4
:104a3c0009e0a70009002200000006006c006600d7
:104a4c004200de006300e10003003a00a0002000f9
:104a5c00f328af00a00f2000800345009785fb00d2
:104a6c004b4988000b07780063016600100020009a
:104a7c000206dd00f0f82f00ae29b6008b066e00a2
:104a8c00dc49af0020fe37008d4b78008984e800ac
:104a9c0009e0a7000900220000000600c0338000d6
:104aac004400de00f000b200004c78008c0345009e
:104abc006a467e008005eb004c4988000c077800a4
:104acc00f0f82f00ae29b600af89af000c40a00063
:104adc008c06d100dc49af0023ff37004d4988001c
:104aec000d0778002e29ef002c29ef00af89a900c3
:104afc00720020004220af00724988004200af00d3
:104b0c00624988004200af00af89a8008d4b780045
:104b1c008984e80009e0a7000900220000000600d3
:104b2c008005eb008c4678001a4778004e498800c7
:104b3c0047002000f0f82f00ae29b6005049800045
:104b4c006300b800f000b0008a0040002180fb0038
:104b5c004400dd00214070004400dd001140700075
:104b6c000000d0000500220085024000dc49ae00a8
:104b7c00f0fb3700e4fd37008005eb0067002000f8
:104b8c00f0f82f00ae29b600630066004220af009b
:104b9c00400020000000d000c260de003100b200f6
:104bac0001600100030037000600370009003700e0
:104bbc000c00370089027800af89af008082420078
:104bcc000b00370089027800af89ae00808242006a
:104bdc0007003700890278002e49af00808242001e
:104bec0003003700890278002e49ae008082420013
:104bfc008582e80005e0a70005002200dc49af0033
:104c0c00c1fd370085047800b9fb3700f1c8bf003f
:104c1c00f000b200f1e8b7005420ef00e1292300c6
:104c2c00de09af00e12d2300a1e1a9009621ef00e0
:104c3c00dc49a8000004e0004220af00dc49a900d8
:104c4c0088e0a9004200dd0000804000b000ba00fe
:104c5c00e10c88003000ba00a0e1b7007689ed00c5
:104c6c004220ae00dc49a800a1e1a800000006002b
:104c7c00f2c8bf00f000b200f2e8b7005420ef0019
:104c8c00e1312300de09af00e1352300a3e1a900e7
:104c9c009a21ef008900a900f408a9004200dd0068
:104cac0000804000b000ba00f10c88003000ba005f
:104cbc00a2e1b700a3e1a80000000600354e800079
:104ccc00244e8000631c2400d2e624000320b8008c
:104cdc00000378000228b800860140000222b800c8
:104cec00838242003307260003024200e0824a001e
:104cfc00244e8800354e880005006a000140b4003f
:104d0c004401de00020068006f0060000000060035
:104d1c00244e8000354e8000f7ff3700dd29a900b6
:104d2c00f500b20005600100000006000e0037001f
:104d3c001000370012003700000006001d0037007d
:104d4c001e00370000000600230037002900370042
:104d5c00000006000000060000000600000006002f
:104d6c0000000600260037000c26020000000000a0
:104d7c00000006003e2602000000000000000600b5
:104d8c00f5c8bf00f308ae0005003700de69af00c0
:104d9c000700370014280200000000000400370050
:104dac00de69ae000200370002280200000000009d
:104dbc00000006006780660075003700f7c8bf006a
:104dcc004400dd00f648b7009b23af00feff370020
:104ddc009ce3b70000000600f848e20003003a002c
:104dec0000602400e04d8800f04d88004220ae00a9
:104dfc0000000600c0272900b04d88000000060006
:104e0c006f6ce100090032004468dd000080760020
:104e1c00c806dd0000807600304e8800204e8800e9
:104e2c00f000b200ffe8b70000000600b00c8000f4
:104e3c004400dd007849b7004400dd009041b70024
:104e4c00304e8800b14d800001006800204e880073
:104e5c00f000b200ffe8b70000000600dd49a90031
:104e6c00f500b2000560010000000600000006001d
:104e7c0000000600000006000b003700150037008c
:104e8c0016003700000006000000060000000600b7
:104e9c0000000600000006002d0037000000060090
:104eac00000006002f0037009900a900f4c8bf00cd
:104ebc000048b6000000a60004003700f4c8bf008c
:104ecc0000e8b700e000b200f4e8b7009900a800d1
:104edc0000000600f568a90000000600f848e20092
:104eec004220af00000006009960a900f6c8bf0080
:104efc00804b7800de49a900f04d8000bc49e300ee
:104f0c00080032009080fb006f806000f6e8b7006c
:104f1c004408de00f7e8b700de49a800be69ec00e3
:104f2c00de49a8000000eb00bcc9bf00be49b500bb
:104f3c00de49af000000e8006f00e1004200af0066
:104f4c00f0002000f8e8b7009960a8000000060007
:104f5c000400fc00fcc8bf0000e8b700fc08a90076
:104f6c00000006008e2602000000000000e8b700da
:104f7c006426020000000000ffe8b70000000600f5
:104f8c003000200002003700f5c8bf007000b200ee
:104f9c0099e3a9005420ef000000d000e17e22002c
:104fac00810040001100ba00001d880099e3a800a0
:104fbc00000000009b43a8009b83a800f868ef004a
:104fcc0000602400e04d8800f04d880000000600d1
:104fdc00040d00008206000040030000a001000048
:104fec00cf00000067000000440000002200000019
:104ffc00f308af000900370099e3a90076e6a80092
:10500c00a0012000b4e7b70030002000efe7bf009c
:10501c00db67ef00de69a9000700370099e3a90000
:10502c0076e6a90060002000b4e7b700300020004d
:10503c00dbe7b700de69a80099e3a800f868ef0089
:10504c0000602400e04d8800f04d88000000060050
:10505c0050498000b04a8800a94a8800f0c8bf00b7
:10506c0058e9b70080498000d04a88007049800018
:10507c00e04a880060498000f04a88001e4b880096
:10508c000d4b8800dcc9ae000100370099f73700e2
:10509c00df89ae00dc10020000000000df89a800f0
:1050ac002a29ef00f068ef00294b8000c00e200089
:1050bc00604d880030002000b04b8800e029ef00e4
:1050cc008005eb000006eb008006eb000007eb0010
:1050dc003029ef002e29ef002c29ef0030002000a2
:1050ec00b04b8800dc49a8008006eb000007eb0001
:1050fc0000082800ae29b60000102000ae29b70029
:10510c007229020000000000dc29ae00feff37000f
:10511c00dc29a900304d80006500e1004200af00a1
:10512c0050002000006001007400370004003700bc
:10513c00180037001d0037002200370063003700cd
:10514c00dcc9af0009003700104980004400dd00c5
:10515c002409b7004400dd002609b7000000d00088
:10516c000100220081044000e5ff37000981e800be
:10517c00010024000110e10002003a000021eb00c4
:10518c000c00370022007800000978004200b000c3
:10519c00f8ff3700dcc9af00270037008984e9002d
:1051ac0009d0a600e9ff2300d5ff3700dcc9af000a
:1051bc001c0037008984e80009e0a70009002200e0
:1051cc00cfff3700dcc9af00030037000a2902000b
:1051dc0000000000f7ff3700190178000a290200cf
:1051ec0000000000c1ff23000148e100020039006b
:1051fc0082287800efff37003100780080107800ab
:10520c008180e900f8ff3700104980004400dd0080
:10521c002409b7004400dd002609b700800c780093
:10522c00000006008209ae00080037004619020093
:10523c0000000000b2ff37008409ae000300370005
:10524c002a29ef0009002200adff3700f04b800047
:10525c008009b60061982000e20020003100600057
:10526c000201e900fdff3a000000a600a4ff370090
:10527c00dc100200000000002a29ef00f068ef00ab
:10528c00f168ef00f268ef00f368ef00f868ef00e8
:10529c00f0002000fee8b70030002000f5e8b70071
:1052ac00fe27020000000000ca27020000000000d8
:1052bc002a29ef0000002200ff0f09000018eb0064
:1052cc00f068ef00090022008dff37003a1402004d
:1052dc00000000008cff370019007800c800de00c9
:1052ec00114988004401de006f01610022498800e9
:1052fc006f0060003049880000000600294b8800d0
:10530c00dcc9ae00b2f337000ff8370000a0fe0086
:10531c000ac8bf00f328af00fac8bf007ae6b7008e
:10532c00fec8bf000080fb00dda9af000e043700f3
:10533c00dda9a8000001b8000200e0004220ae0088
:10534c005200b0005200b0000201d000920c880054
:10535c00124e880030002000dcc9af00f368b600a4
:10536c007c29ec00ddc9af000e003700dde9af0091
:10537c000c003700e04b8000f003b2004220af007d
:10538c00b629ed0007003a00c0272900b04d88006f
:10539c00f968ed0003003a00fec8bf00bae9b70097
:1053ac00ddc9a8007809ec00f000b200c04b880001
:1053bc008e66ef007b66ef008f06a900dd89a900e1
:1053cc00c700dd006626af000110a0003133880055
:1053dc0063488000dca9ae00734d800000600100c2
:1053ec000f0037003e003700600037007d003700ab
:1053fc00a6003700ca003700ee0037001601370050
:10540c007d013700b7013700f40137003102370056
:10541c0074023700b1023700ee0237003e0337004a
:10542c007c89af000f003700a809ac000c003a00d3
:10543c00abe9af000b003700dcc9af000900370047
:10544c00aa29ed0007003a00e0972000110009009e
:10545c000098eb00f0002000504d88000100370050
:10546c00aaa9ef000300a700dd89a800b14b8000ba
:10547c00630ce10002003200dcc9af000e00370003
:10548c001148800091007800c808de00dca9ae004d
:10549c0011498000000020007d29af00e009ae001a
:1054ac00100020000100dd00b809e2004220ae002f
:1054bc00c04d800007003700f2c8bf007609e2003b
:1054cc004220af00fec8bf008080fb00100020000f
:1054dc000100dd00dc69af00404e8000980337000e
:1054ec000310a700dd89a800b14b8000630ce1001c
:1054fc0002003200dcc9af000f00370011488000f9
:10550c0091007800c408de00dca9ae0021498000bf
:10551c00f100b200000020007d29af00e029ae00b0
:10552c00100020000100dd00b809e2004220ae00ae
:10553c00c04d80000a003700f1c8bf00dca9af00e5
:10554c0014c9bf007609e20002003a00f5c8bf009a
:10555c000034a1008080fb00100020000100dd0061
:10556c00dc69af00504e8000730337000320a700a6
:10557c00dd89a800b14b8000630ce1000200320011
:10558c00dcc9af000b003700114880009100780097
:10559c00dca9ae0031498000f100b20010002000ff
:1055ac000100dd00b809e2004220ae00c04d8000d1
:1055bc0009003700f0c8bf00dca9af0010c9bf005c
:1055cc007609e2004220af00004e80008080fb0094
:1055dc00100020000100dd00dc69af00604e80008f
:1055ec0055033700a429d4006446af00a409a800d1
:1055fc00a449ec004220af00dcc9a9004220af0056
:10560c00fc68a900a449e2004220af00dcc9a80054
:10561c004220af00fc68a900dc69af00070037002e
:10562c0078c6bf004400de006f006000f328ae00b7
:10563c000be8b700f328af00fbe8b7000330a70076
:10564c00dd89a800010022001048800001005000f4
:10565c00dcc9af001e09d400dca9ae0001805400e7
:10566c008000d100304880004c00dd00dca9ae0089
:10567c004c60dd00f3ff2000818061000080700031
:10568c00dc69af00704e80002d0337000340a7008b
:10569c00dd89a800dca9af00190037008049800023
:1056ac002a49ae0003003700e0c9af007d29ae00e7
:1056bc000030a000c800dd004460dd0000807500f3
:1056cc004200dd00024f2300020040000350a700ff
:1056dc000080e8005400f8005420ef001000ba00dd
:1056ec005400f900f00fb200010070004400dd001e
:1056fc000b007000dc69af00804e80000e03370099
:10570c00b04880001c49af000030a000c800dd008c
:10571c00304880004400dd000409b700e8ff370082
:10572c000350a700dd89a800dca9af0012003700e8
:10573c00704980002a29ae0003003700e0c9af0091
:10574c007d29ae000030a0004400dd008c80750087
:10575c00010070004400dd008c80650001007000c9
:10576c004400dd008c806d0001007000dc69af002e
:10577c00904e8000f0023700c04880001c29af001a
:10578c000030a0004400dd00224880003348800037
:10579c0083007100010070004400dd008300610093
:1057ac00010070004400dd008300690001007000fe
:1057bc00e1023700a229d4008d26af00a209a8006f
:1057cc00a289ec0007003a00ddc9af0005003700e4
:1057dc00dde9af0003003700fec8bf00bae9b7002f
:1057ec00ddc9a8000360a700dd89a800dca9af0013
:1057fc000f003700604980002a09ae000300370013
:10580c00e0c9af007d29ae000030a0004400dd00ef
:10581c000e0070004400dd002809b7004400dd00d4
:10582c000d007000dc69af00a04e8000c202370092
:10583c00d04880001c09af000030a0004400dd00ff
:10584c000a09b7004400dd000e09b7004400dd0072
:10585c000809b700b80237007c89af001a0037007e
:10586c009e29d40000c02f009e29b7006466af00ab
:10587c009e09a8009e89ec002d003a00a829b600cc
:10588c0000012000304d88004000b1004200ae0005
:10589c0000002000fde8b700dc29a800fc08a800e7
:1058ac00f0002000f9e8b700c0272900b04d8800af
:1058bc00ace9ae001f00370000052000abe9af00db
:1058cc00504d88001b003700a029d40000c02f00c9
:1058dc00a029b7006486af00a009a800a089ec003d
:1058ec0013003a00a829b60010012000304d8800a2
:1058fc004000b1004200ae0000002000fde8b700ff
:10590c00dc29a800fc08a800f0002000f9e8b7008a
:10591c00c0272900b04d8800ad09ae000500370046
:10592c0000052000abe9af00504d880001003700a6
:10593c00a829b6000370a700dd89a800dca9af0078
:10594c001e003700f0c8bf004400dd00b14b8000e2
:10595c00630ce10002003200dcc9af000600370026
:10596c002209b7004400dd002409b7004400dd0023
:10597c002609b700070037007609e200080032005c
:10598c00f248b7004400dd00f148b7004400dd00e8
:10599c00f048b700dc69af00b04e800066023700fb
:1059ac00fe48b7004400dd00f548b7000030a10008
:1059bc004400dd00c049b7005f023700dcc9af000e
:1059cc000500370010c9bf004c00dd0011488000f5
:1059dc00110070005802370010c9bf004400dd00f0
:1059ec00fe48b7004400dd001449b7004400dd0058
:1059fc001049b700500237007c89af001a003700fd
:105a0c007e29d40000c02f007e29b7006466af0049
:105a1c007e09a8007e89ec002d003a00a829b6006a
:105a2c0000002000304d88004000b1004200ae0064
:105a3c0000002000fde8b700dc29a800fc08a80045
:105a4c00f0002000f9e8b700c0272900b04d88000d
:105a5c00ac09ae001f00370000052000abe9af0019
:105a6c00504d88001b0037008029d40000c02f0047
:105a7c008029b7006486af008009a8008089ec00fb
:105a8c0013003a00a829b60010002000304d880001
:105a9c004000b1004200ae0000002000fde8b7005d
:105aac00dc29a800fc08a800f0002000f9e8b700e9
:105abc00c0272900b04d8800ac29ae000500370086
:105acc0000052000abe9af00504d88000100370005
:105adc00a829b6000380a700dd89a8001181200049
:105aec00d80137007c89af001a0037008229d40016
:105afc0000c02f008229b7006466af008209a8009d
:105b0c008289ec002d003a00a829b6002000200064
:105b1c00304d88004000b1004200ae000000200073
:105b2c00fde8b700dc29a800fc08a800f000200064
:105b3c00f9e8b700c0272900b04d8800ac49ae0089
:105b4c001f00370000052000abe9af00504d880066
:105b5c001b0037008429d40000c02f008429b70013
:105b6c006486af008409a8008489ec0013003a0015
:105b7c00a829b60030002000304d88004000b1004c
:105b8c004200ae0000002000fde8b700dc29a800b0
:105b9c00fc08a800f0002000f9e8b700c027290095
:105bac00b04d8800ac69ae00050037000005200040
:105bbc00abe9af00504d880001003700a829b600b2
:105bcc000390a60003003700e049af007d29ae002a
:105bdc00dd89a800318120009a0137007c89af0053
:105bec001a0037008629d40000c02f008629b70080
:105bfc006466af008609a8008689ec002d003a0087
:105c0c00a829b60040002000304d88004000b100ab
:105c1c004200ae0000002000fde8b700dc29a8001f
:105c2c00fc08a800f0002000f9e8b700c027290004
:105c3c00b04d8800ac89ae001f0037000005200075
:105c4c00abe9af00504d88001b0037008829d40009
:105c5c0000c02f008829b7006486af008809a8000f
:105c6c008889ec0013003a00a829b60050002000e7
:105c7c00304d88004000b1004200ae000000200012
:105c8c00fde8b700dc29a800fc08a800f000200003
:105c9c00f9e8b700c0272900b04d8800aca9ae00c8
:105cac000500370000052000abe9af00504d88001f
:105cbc0001003700a829b60003a0a6000300370096
:105ccc00e069af007d29ae00dd89a800518120007c
:105cdc005c013700dc69af000700370078c6bf00f5
:105cec004400de006f006000f328ae000be8b70044
:105cfc00f328af00fbe8b7007c89af001a0037002f
:105d0c008a29d40000c02f008a29b7006466af002e
:105d1c008a09a8008a89ec002d003a00a829b6004f
:105d2c0060002000304d88004000b1004200ae0001
:105d3c0000002000fde8b700dc29a800fc08a80042
:105d4c00f0002000f9e8b700c0272900b04d88000a
:105d5c00aca9ae001f00370000052000abe9af0076
:105d6c00504d88001b0037008c29d40000c02f0038
:105d7c008c29b7006486af008c09a8008c89ec00d4
:105d8c0013003a00a829b60070002000304d88009e
:105d9c004000b1004200ae0000002000fde8b7005a
:105dac00dc29a800fc08a800f0002000f9e8b700e6
:105dbc00c0272900b04d8800aca9ae000500370003
:105dcc0000052000abe9af00504d88000100370002
:105ddc00a829b60003b0a700dd89a80071812000b6
:105dec00180137007c89af001a0037008e29d400c7
:105dfc0000c02f008e29b7006466af008e09a80082
:105e0c008e89ec002d003a00a829b60080002000f5
:105e1c00304d88004000b1004200ae000000200070
:105e2c00fde8b700dc29a800fc08a800f000200061
:105e3c00f9e8b700c0272900b04d8800aca9ae0026
:105e4c001f00370000052000abe9af00504d880063
:105e5c001b0037009029d40000c02f009029b700f8
:105e6c006486af009009a8009089ec0013003a00fa
:105e7c00a829b60090002000304d88004000b100e9
:105e8c004200ae0000002000fde8b700dc29a800ad
:105e9c00fc08a800f0002000f9e8b700c027290092
:105eac00b04d8800acc9ae000500370000052000dd
:105ebc00abe9af00504d880001003700a829b600af
:105ecc0003c0a60003003700e089af007d29ae00b7
:105edc00dd89a80091812000da0037007c89af00b1
:105eec001a0037009229d40000c02f009229b70065
:105efc006466af009209a8009289ec002d003a006c
:105f0c00a829b600a0002000304d88004000b10048
:105f1c004200ae0000002000fde8b700dc29a8001c
:105f2c00fc08a800f0002000f9e8b700c027290001
:105f3c00b04d8800acc9ae001f0037000005200032
:105f4c00abe9af00504d88001b0037009429d400fa
:105f5c0000c02f009429b7006486af009409a800f4
:105f6c009489ec0013003a00a829b600b000200078
:105f7c00304d88004000b1004200ae00000020000f
:105f8c00fde8b700dc29a800fc08a800f000200000
:105f9c00f9e8b700c0272900b04d8800acc9ae00a5
:105fac000500370000052000abe9af00504d88001c
:105fbc0001003700a829b60003d0a6000300370063
:105fcc00e0a9af007d29ae00dd89a800b1812000d9
:105fdc009c003700e04b80000103200001006000b2
:105fec000f003a00ddc9ae0005003700fe48e200a4
:105ffc004220af00ddc9a90019013200fe68ed0096
:10600c00dde9ae0006003700bac9bf00fe48e30068
:10601c004200af00dde9a9004200ae00fe68ec00d2
:10602c007c89af001a0037009629d40000c02f00dd
:10603c009629b7006466af009609a8009689ec0013
:10604c002d003a00a829b600c0002000304d880071
:10605c004000b1004200ae0000002000fde8b70097
:10606c00dc29a800fc08a800f0002000f9e8b70023
:10607c00c0272900b04d8800acc9ae001f00370006
:10608c0000052000abe9af00504d88001b00370025
:10609c009829d40000c02f009829b7006486af005f
:1060ac009809a8009889ec0013003a00a829b600ba
:1060bc00d0002000304d88004000b1004200ae00fe
:1060cc0000002000fde8b700dc29a800fc08a800af
:1060dc00f0002000f9e8b700c0272900b04d880077
:1060ec00ace9ae000500370000052000abe9af00bd
:1060fc00504d880001003700a829b60003e0a60027
:10610c0003003700e0e9af007d29ae00dd89a8006f
:10611c00d18120004b0037007c89af001a0037007a
:10612c009a29d40000c02f009a29b7006466af00ea
:10613c009a09a8009a89ec002d003a00a829b6000b
:10614c00e0002000304d88004000b1004200ae005d
:10615c0000002000fde8b700dc29a800fc08a8001e
:10616c00f0002000f9e8b700c0272900b04d8800e6
:10617c00ace9ae001f00370000052000abe9af0012
:10618c00504d88001b0037009c29d40000c02f0004
:10619c009c29b7006486af009c09a8009c89ec0080
:1061ac0013003a00a829b600f0002000304d8800fa
:1061bc004000b1004200ae0000002000fde8b70036
:1061cc00dc29a800fc08a800f0002000f9e8b700c2
:1061dc00c0272900b04d8800ace9ae00050037009f
:1061ec0000052000abe9af00504d880001003700de
:1061fc00a829b6007c89ae0007003700dd69a9002c
:10620c00a809ae00dd69a800fc48a900dd69af0053
:10621c00fc48a80008003700fc28a900fd48d40061
:10622c00f001b2000400320061982000010040002f
:10623c001000a600fc28a80003f0a700dd89a80028
:10624c00f1812000dca9ae00090037000148800074
:10625c00dcc9ae000101b000c04b80007000b20080
:10626c000000d000810040001100780028003700a9
:10627c00f0c8bf00dcc9af000000eb000080fb00e1
:10628c004400dd008100400070815000f08f200040
:10629c000008e1004200af000110b1002180fb00ba
:1062ac004400dd00224070004400dd00114070000d
:1062bc004400dd0012407000b24b80000200e00090
:1062cc0010003a00df09af0008003700c24b800015
:1062dc006d10e1004220af00c04e80006f10e10055
:1062ec004220af00d04e800009003700dcc9ae0060
:1062fc00060037007809d400f000b2006196200047
:10630c00608078006310e1004220af0000002000a4
:10631c00f368af00dd89a900dd89af008f06a80006
:10632c00f348ae008ee6b7000080fd00f348ae00e7
:10633c007be6b70009003700f368af00dd89a900e0
:10634c00dd89af008f06a800f368ae008ee6b700bb
:10635c000080fd00f368ae007be6b7000080fe0015
:10636c008860a90000400600dda9a9008e26ef0078
:10637c007b66ef00104e8000b21d20000000510023
:10638c00900c88000080fe008860a9000040060088
:10639c00f408a800000000008900a90000400600d5
:1063ac0000a0fe00f11c8000de49af000a0037009f
:1063bc004408de00f7e8b7006f806000f6e8b7002d
:1063cc0010002000f8e8b700de49a8008960a90099
:1063dc000080fe0000400600e24d80000240e80014
:1063ec00be49e30002003a00f568a8000b00370034
:1063fc0001497800bc69ec00be89bf00bc09b5003e
:10640c000080fb000000e8006f00e1004200af00dc
:10641c00f0002000f8e8b700de49a8008960a90068
:10642c000080fe00004006009a23a9009a43a900b0
:10643c009020a900004006008bc0a9000040060077
:10644c008ba0a90000400600b023a900b043a9000e
:10645c009040a900004006008a80a9000040060078
:10646c0083e0a90095e1a900a1e1a900a3e1a9009d
:10647c009860a90098e0a9009900a9009a80a90049
:10648c007b66ef008e26ef0076e6ef006226a80012
:10649c008a320200000000008a80a9008220a80035
:1064ac009a80a8000040fe0020002000f9e8b70008
:1064bc00c0272900b04d8800000f200076e6b700f9
:1064cc006226a900f308af0076e6a9009a80a9001d
:1064dc009860a8009900a80095e1a800a1e1a80087
:1064ec00a3e1a80083e0a800e19720003600f800a3
:1064fc00120009008018eb003600f900dde9a80055
:10650c00b431040000000000403820003600f800d0
:10651c0037060900000000003600f9008d26ae0099
:10652c00f9ff37000000e900f8ff3a000000060010
:10653c0009000000000000004f00000000000000f7
:10654c000a010000000000001f0300000000000012
:10655c006a0a0000000000003f1f0000000000005d
:10656c007f3e0000000000003f9c00000000000087
:10657c000f270000100000001f4e0000100000004c
:10658c006918000020000000d3300000200000003b
:10659c00a761000020000000083d00003000000052
:1065ac00117a00003000000023f4000030000000dd
:1065bc0009000000000000000900000000000000bd
:1065cc0009000000000000004f0000000000000067
:1065dc0009010000000000001f0300000000000083
:1065ec003f060000000000009f0f000000000000ac
:1065fc003f1f0000000000007f3e00000000000074
:10660c003f9c0000000000000f270000100000005d
:10661c001f4e000010000000691800002000000050
:10662c00d330000020000000a76100002000000013
:10663c007f3e0000000000002a68000000000000ff
:10664c003f9c000000000000fff90000000000006b
:10665c0014340000100000001f4e00001000000059
:10666c0034820000100000004fc300001000000036
:10667c000f270000200000001a410000200000003d
:10668c00a761000020000000c2a200002000000052
:10669c0023f4000020000000a7610000300000007f
:1066ac00c2a200003000000023f400003000000003
:1066bc003f060000000000006a0a00000000000015
